S01100004D61737465724156522E73726563BE
S11300000C942A000C9447000C9447000C9447006D
S11300100C9447000C9447000C9447000C94470040
S11300200C9447000C9447000C9447000C94470030
S11300300C9447000C9447000C9447000C94470020
S11300400C9447000C9447000C9447000C94470010
S11300500C94470011241FBECFE5D8E0DEBFCDBF0E
S113006010E0A0E6B0E0EEE5F1E002C005900D92EC
S1130070A036B107D9F720E0A0E6B0E001C01D9298
S1130080AB36B207E1F70E9472000C94AD000C94F9
S113009000008FE28ABB11BA17BA089581E08BBBC6
S11300A080936A00CC9905C089B380936A00CC9B85
S11300B0FBCF8FEF81BB85E582BB80E28BBB809356
S11300C06A00CE9905C089B380936A00CE9BFBCFAA
S11300D01BBA81E090E0909369008093680011BAA4
S11300E01BBA08950E94490025C0209160003091F8
S11300F061004091620050916300609164007091CE
S113010065008091660090916700A1E00E94A100C3
S11301102093600030936100409362005093630029
S11301206093640070936500809366009093670009
S11301300E944E008091680090916900892BA9F279
S1130140FFCF0024A7FD00942A0F301D401D501D31
S1110150601D701D801D901D0895F894FFCF52
S9030000FC
