S00D0000536C6176652E737265631C
S11300000C942A000C943C000C943C000C943C008E
S11300100C943C000C943C000C943C000C943C006C
S11300200C943C000C943C000C943C000C943C005C
S11300300C943C000C943C000C943C000C943C004C
S11300400C943C000C943C000C943C000C943C003C
S11300500C943C0011241FBECFE5D8E0DEBFCDBF19
S113006020E0A0E6B0E001C01D92A137B207E1F79D
S11300700E9486000C9499000C9400008EED8ABBBB
S11300808FEF87BB84BB11BA0895C89B17C011BA00
S1130090C09A80E18BBBCD9905C089B38093700071
S11300A0CD9BFBCFC19A80B38093600087E085BB72
S11300B080B388BB8FEF81BB80E48BBB2091680049
S11300C03091690040916A0050916B0060916C001E
S11300D070916D0080916E0090916F00A1E00E947C
S11300E08D00209368003093690040936A00509318
S11300F06B0060936C0070936D0080936E0090931E
S11301006F0008958091600088BB08950E943E00AE
S11301100E9445000E948200FBCF0024A7FD0094AA
S11301202A0F301D401D501D601D701D801D901D27
S10901300895F894FFCFCE
S9030000FC
