:100000000C942A000C943C000C943C000C943C0092
:100010000C943C000C943C000C943C000C943C0070
:100020000C943C000C943C000C943C000C943C0060
:100030000C943C000C943C000C943C000C943C0050
:100040000C943C000C943C000C943C000C943C0040
:100050000C943C0011241FBECFE5D8E0DEBFCDBF1D
:1000600020E0A0E6B0E001C01D92A237B207E1F7A0
:100070000E94A1000C94B4000C9400008EED8ABB89
:100080008FEF87BB84BB11BA0895809170008830D0
:1000900018F550E147E03FEF20E411BAC09A5BBB8E
:1000A000CD9905C089B380937100CD9BFBCFC19AD8
:1000B0008091700090B3E82FF0E0E05AFF4F9083FA
:1000C0008F5F8093700045BB80B388BB31BB2BBB77
:1000D00080917000883008F32091680030916900A9
:1000E00040916A0050916B0060916C0070916D00BE
:1000F00080916E0090916F00A1E00E94A800209373
:1001000068003093690040936A0050936B006093DD
:100110006C0070936D0080936E0090936F00089553
:10012000C89B04C0109270000E9445000895E0E64C
:10013000F0E088E690E0219128BBE817F907D9F7AD
:1001400008950E943E000E9490000E949700FBCFFD
:100150000024A7FD00942A0F301D401D501D601D76
:0C016000701D801D901D0895F894FFCFC5
:00000001FF
